{
  "_format": "hh-sol-artifact-1",
  "contractName": "PizzaOrder",
  "sourceName": "contracts/PizzaOrder.sol",
  "abi": [
    {
      "inputs": [
        {
          "internalType": "address",
          "name": "initialOwner",
          "type": "address"
        }
      ],
      "stateMutability": "nonpayable",
      "type": "constructor"
    },
    {
      "inputs": [
        {
          "internalType": "address",
          "name": "owner",
          "type": "address"
        }
      ],
      "name": "OwnableInvalidOwner",
      "type": "error"
    },
    {
      "inputs": [
        {
          "internalType": "address",
          "name": "account",
          "type": "address"
        }
      ],
      "name": "OwnableUnauthorizedAccount",
      "type": "error"
    },
    {
      "anonymous": false,
      "inputs": [
        {
          "indexed": true,
          "internalType": "string",
          "name": "pizzaType",
          "type": "string"
        },
        {
          "indexed": false,
          "internalType": "uint256",
          "name": "orderTime",
          "type": "uint256"
        }
      ],
      "name": "OrderCreated",
      "type": "event"
    },
    {
      "anonymous": false,
      "inputs": [
        {
          "indexed": true,
          "internalType": "address",
          "name": "previousOwner",
          "type": "address"
        },
        {
          "indexed": true,
          "internalType": "address",
          "name": "newOwner",
          "type": "address"
        }
      ],
      "name": "OwnershipTransferred",
      "type": "event"
    },
    {
      "anonymous": false,
      "inputs": [
        {
          "indexed": false,
          "internalType": "address",
          "name": "customer",
          "type": "address"
        },
        {
          "indexed": false,
          "internalType": "uint256",
          "name": "orderIndex",
          "type": "uint256"
        }
      ],
      "name": "PizzaLiked",
      "type": "event"
    },
    {
      "inputs": [
        {
          "internalType": "uint256",
          "name": "newPrice",
          "type": "uint256"
        }
      ],
      "name": "changePizzaPrice",
      "outputs": [],
      "stateMutability": "nonpayable",
      "type": "function"
    },
    {
      "inputs": [
        {
          "internalType": "string",
          "name": "_pizzaType",
          "type": "string"
        }
      ],
      "name": "createOrder",
      "outputs": [],
      "stateMutability": "payable",
      "type": "function"
    },
    {
      "inputs": [],
      "name": "getCustomerOrders",
      "outputs": [
        {
          "components": [
            {
              "internalType": "uint256",
              "name": "id",
              "type": "uint256"
            },
            {
              "internalType": "string",
              "name": "pizzaType",
              "type": "string"
            },
            {
              "internalType": "uint256",
              "name": "orderTime",
              "type": "uint256"
            },
            {
              "internalType": "bool",
              "name": "like",
              "type": "bool"
            }
          ],
          "internalType": "struct PizzaOrder.Order[]",
          "name": "",
          "type": "tuple[]"
        }
      ],
      "stateMutability": "view",
      "type": "function"
    },
    {
      "inputs": [
        {
          "internalType": "uint256",
          "name": "_id",
          "type": "uint256"
        }
      ],
      "name": "likePizza",
      "outputs": [],
      "stateMutability": "nonpayable",
      "type": "function"
    },
    {
      "inputs": [
        {
          "internalType": "address",
          "name": "",
          "type": "address"
        },
        {
          "internalType": "uint256",
          "name": "",
          "type": "uint256"
        }
      ],
      "name": "orders",
      "outputs": [
        {
          "internalType": "uint256",
          "name": "id",
          "type": "uint256"
        },
        {
          "internalType": "string",
          "name": "pizzaType",
          "type": "string"
        },
        {
          "internalType": "uint256",
          "name": "orderTime",
          "type": "uint256"
        },
        {
          "internalType": "bool",
          "name": "like",
          "type": "bool"
        }
      ],
      "stateMutability": "view",
      "type": "function"
    },
    {
      "inputs": [],
      "name": "owner",
      "outputs": [
        {
          "internalType": "address",
          "name": "",
          "type": "address"
        }
      ],
      "stateMutability": "view",
      "type": "function"
    },
    {
      "inputs": [],
      "name": "pizzaPrice",
      "outputs": [
        {
          "internalType": "uint256",
          "name": "",
          "type": "uint256"
        }
      ],
      "stateMutability": "view",
      "type": "function"
    },
    {
      "inputs": [],
      "name": "renounceOwnership",
      "outputs": [],
      "stateMutability": "nonpayable",
      "type": "function"
    },
    {
      "inputs": [
        {
          "internalType": "address",
          "name": "newOwner",
          "type": "address"
        }
      ],
      "name": "transferOwnership",
      "outputs": [],
      "stateMutability": "nonpayable",
      "type": "function"
    }
  ],
  "bytecode": "0x608060405266071afd498d00006001553480156200001c57600080fd5b5060405162001642380380620016428339818101604052810190620000429190620001ff565b80600073ffffffffffffffffffffffffffffffffffffffff168173ffffffffffffffffffffffffffffffffffffffff1603620000b85760006040517f1e4fbdf7000000000000000000000000000000000000000000000000000000008152600401620000af919062000242565b60405180910390fd5b620000c981620000d160201b60201c565b50506200025f565b60008060009054906101000a900473ffffffffffffffffffffffffffffffffffffffff169050816000806101000a81548173ffffffffffffffffffffffffffffffffffffffff021916908373ffffffffffffffffffffffffffffffffffffffff1602179055508173ffffffffffffffffffffffffffffffffffffffff168173ffffffffffffffffffffffffffffffffffffffff167f8be0079c531659141344cd1fd0a4f28419497f9722a3daafe3b4186f6b6457e060405160405180910390a35050565b600080fd5b600073ffffffffffffffffffffffffffffffffffffffff82169050919050565b6000620001c7826200019a565b9050919050565b620001d981620001ba565b8114620001e557600080fd5b50565b600081519050620001f981620001ce565b92915050565b60006020828403121562000218576200021762000195565b5b60006200022884828501620001e8565b91505092915050565b6200023c81620001ba565b82525050565b600060208201905062000259600083018462000231565b92915050565b6113d3806200026f6000396000f3fe6080604052600436106100865760003560e01c8063793b8c6d11610059578063793b8c6d146101105780638da5cb5b14610150578063924720bd1461017b578063b9b255e2146101a6578063f2fde38b146101d157610086565b806303b7c7641461008b5780631fbe0178146100a75780633f66a22f146100d0578063715018a6146100f9575b600080fd5b6100a560048036038101906100a09190610ab6565b6101fa565b005b3480156100b357600080fd5b506100ce60048036038101906100c99190610b35565b6103ae565b005b3480156100dc57600080fd5b506100f760048036038101906100f29190610b35565b6104ef565b005b34801561010557600080fd5b5061010e610501565b005b34801561011c57600080fd5b5061013760048036038101906101329190610bc0565b610515565b6040516101479493929190610ca9565b60405180910390f35b34801561015c57600080fd5b506101656105f7565b6040516101729190610d04565b60405180910390f35b34801561018757600080fd5b50610190610620565b60405161019d9190610d1f565b60405180910390f35b3480156101b257600080fd5b506101bb610626565b6040516101c89190610ec7565b60405180910390f35b3480156101dd57600080fd5b506101f860048036038101906101f39190610ee9565b610783565b005b600154341461023e576040517f08c379a000000000000000000000000000000000000000000000000000000000815260040161023590610f88565b60405180910390fd5b60006040518060800160405280600260003373ffffffffffffffffffffffffffffffffffffffff1673ffffffffffffffffffffffffffffffffffffffff168152602001908152602001600020805490508152602001838152602001428152602001600015158152509050600260003373ffffffffffffffffffffffffffffffffffffffff1673ffffffffffffffffffffffffffffffffffffffff16815260200190815260200160002081908060018154018082558091505060019003906000526020600020906004020160009091909190915060008201518160000155602082015181600101908161033091906111b4565b506040820151816002015560608201518160030160006101000a81548160ff02191690831515021790555050508160405161036b91906112c2565b60405180910390207f1a72d6383b1fc1b015bedc584a040a3cba7b0a5e33b00a43a1693b852be2382e426040516103a29190610d1f565b60405180910390a25050565b600260003373ffffffffffffffffffffffffffffffffffffffff1673ffffffffffffffffffffffffffffffffffffffff168152602001908152602001600020805490508110610432576040517f08c379a000000000000000000000000000000000000000000000000000000000815260040161042990611325565b60405180910390fd5b6000600260003373ffffffffffffffffffffffffffffffffffffffff1673ffffffffffffffffffffffffffffffffffffffff168152602001908152602001600020828154811061048557610484611345565b5b9060005260206000209060040201905060018160030160006101000a81548160ff0219169083151502179055507fd3c2e446e09f1a989963961d6759bc2cb0b76f1ac4186f4cc3715b208539957933836040516104e3929190611374565b60405180910390a15050565b6104f7610809565b8060018190555050565b610509610809565b6105136000610890565b565b6002602052816000526040600020818154811061053157600080fd5b90600052602060002090600402016000915091505080600001549080600101805461055b90610fd7565b80601f016020809104026020016040519081016040528092919081815260200182805461058790610fd7565b80156105d45780601f106105a9576101008083540402835291602001916105d4565b820191906000526020600020905b8154815290600101906020018083116105b757829003601f168201915b5050505050908060020154908060030160009054906101000a900460ff16905084565b60008060009054906101000a900473ffffffffffffffffffffffffffffffffffffffff16905090565b60015481565b6060600260003373ffffffffffffffffffffffffffffffffffffffff1673ffffffffffffffffffffffffffffffffffffffff168152602001908152602001600020805480602002602001604051908101604052809291908181526020016000905b8282101561077a5783829060005260206000209060040201604051806080016040529081600082015481526020016001820180546106c490610fd7565b80601f01602080910402602001604051908101604052809291908181526020018280546106f090610fd7565b801561073d5780601f106107125761010080835404028352916020019161073d565b820191906000526020600020905b81548152906001019060200180831161072057829003601f168201915b50505050508152602001600282015481526020016003820160009054906101000a900460ff16151515158152505081526020019060010190610687565b50505050905090565b61078b610809565b600073ffffffffffffffffffffffffffffffffffffffff168173ffffffffffffffffffffffffffffffffffffffff16036107fd5760006040517f1e4fbdf70000000000000000000000000000000000000000000000000000000081526004016107f49190610d04565b60405180910390fd5b61080681610890565b50565b610811610954565b73ffffffffffffffffffffffffffffffffffffffff1661082f6105f7565b73ffffffffffffffffffffffffffffffffffffffff161461088e57610852610954565b6040517f118cdaa70000000000000000000000000000000000000000000000000000000081526004016108859190610d04565b60405180910390fd5b565b60008060009054906101000a900473ffffffffffffffffffffffffffffffffffffffff169050816000806101000a81548173ffffffffffffffffffffffffffffffffffffffff021916908373ffffffffffffffffffffffffffffffffffffffff1602179055508173ffffffffffffffffffffffffffffffffffffffff168173ffffffffffffffffffffffffffffffffffffffff167f8be0079c531659141344cd1fd0a4f28419497f9722a3daafe3b4186f6b6457e060405160405180910390a35050565b600033905090565b6000604051905090565b600080fd5b600080fd5b600080fd5b600080fd5b6000601f19601f8301169050919050565b7f4e487b7100000000000000000000000000000000000000000000000000000000600052604160045260246000fd5b6109c38261097a565b810181811067ffffffffffffffff821117156109e2576109e161098b565b5b80604052505050565b60006109f561095c565b9050610a0182826109ba565b919050565b600067ffffffffffffffff821115610a2157610a2061098b565b5b610a2a8261097a565b9050602081019050919050565b82818337600083830152505050565b6000610a59610a5484610a06565b6109eb565b905082815260208101848484011115610a7557610a74610975565b5b610a80848285610a37565b509392505050565b600082601f830112610a9d57610a9c610970565b5b8135610aad848260208601610a46565b91505092915050565b600060208284031215610acc57610acb610966565b5b600082013567ffffffffffffffff811115610aea57610ae961096b565b5b610af684828501610a88565b91505092915050565b6000819050919050565b610b1281610aff565b8114610b1d57600080fd5b50565b600081359050610b2f81610b09565b92915050565b600060208284031215610b4b57610b4a610966565b5b6000610b5984828501610b20565b91505092915050565b600073ffffffffffffffffffffffffffffffffffffffff82169050919050565b6000610b8d82610b62565b9050919050565b610b9d81610b82565b8114610ba857600080fd5b50565b600081359050610bba81610b94565b92915050565b60008060408385031215610bd757610bd6610966565b5b6000610be585828601610bab565b9250506020610bf685828601610b20565b9150509250929050565b610c0981610aff565b82525050565b600081519050919050565b600082825260208201905092915050565b60005b83811015610c49578082015181840152602081019050610c2e565b60008484015250505050565b6000610c6082610c0f565b610c6a8185610c1a565b9350610c7a818560208601610c2b565b610c838161097a565b840191505092915050565b60008115159050919050565b610ca381610c8e565b82525050565b6000608082019050610cbe6000830187610c00565b8181036020830152610cd08186610c55565b9050610cdf6040830185610c00565b610cec6060830184610c9a565b95945050505050565b610cfe81610b82565b82525050565b6000602082019050610d196000830184610cf5565b92915050565b6000602082019050610d346000830184610c00565b92915050565b600081519050919050565b600082825260208201905092915050565b6000819050602082019050919050565b610d6f81610aff565b82525050565b600082825260208201905092915050565b6000610d9182610c0f565b610d9b8185610d75565b9350610dab818560208601610c2b565b610db48161097a565b840191505092915050565b610dc881610c8e565b82525050565b6000608083016000830151610de66000860182610d66565b5060208301518482036020860152610dfe8282610d86565b9150506040830151610e136040860182610d66565b506060830151610e266060860182610dbf565b508091505092915050565b6000610e3d8383610dce565b905092915050565b6000602082019050919050565b6000610e5d82610d3a565b610e678185610d45565b935083602082028501610e7985610d56565b8060005b85811015610eb55784840389528151610e968582610e31565b9450610ea183610e45565b925060208a01995050600181019050610e7d565b50829750879550505050505092915050565b60006020820190508181036000830152610ee18184610e52565b905092915050565b600060208284031215610eff57610efe610966565b5b6000610f0d84828501610bab565b91505092915050565b7f416d6f756e742073686f756c6420626520657175616c20746f2070697a7a612060008201527f7072696365000000000000000000000000000000000000000000000000000000602082015250565b6000610f72602583610c1a565b9150610f7d82610f16565b604082019050919050565b60006020820190508181036000830152610fa181610f65565b9050919050565b7f4e487b7100000000000000000000000000000000000000000000000000000000600052602260045260246000fd5b60006002820490506001821680610fef57607f821691505b60208210810361100257611001610fa8565b5b50919050565b60008190508160005260206000209050919050565b60006020601f8301049050919050565b600082821b905092915050565b60006008830261106a7fffffffffffffffffffffffffffffffffffffffffffffffffffffffffffffffff8261102d565b611074868361102d565b95508019841693508086168417925050509392505050565b6000819050919050565b60006110b16110ac6110a784610aff565b61108c565b610aff565b9050919050565b6000819050919050565b6110cb83611096565b6110df6110d7826110b8565b84845461103a565b825550505050565b600090565b6110f46110e7565b6110ff8184846110c2565b505050565b5b81811015611123576111186000826110ec565b600181019050611105565b5050565b601f8211156111685761113981611008565b6111428461101d565b81016020851015611151578190505b61116561115d8561101d565b830182611104565b50505b505050565b600082821c905092915050565b600061118b6000198460080261116d565b1980831691505092915050565b60006111a4838361117a565b9150826002028217905092915050565b6111bd82610c0f565b67ffffffffffffffff8111156111d6576111d561098b565b5b6111e08254610fd7565b6111eb828285611127565b600060209050601f83116001811461121e576000841561120c578287015190505b6112168582611198565b86555061127e565b601f19841661122c86611008565b60005b828110156112545784890151825560018201915060208501945060208101905061122f565b86831015611271578489015161126d601f89168261117a565b8355505b6001600288020188555050505b505050505050565b600081905092915050565b600061129c82610c0f565b6112a68185611286565b93506112b6818560208601610c2b565b80840191505092915050565b60006112ce8284611291565b915081905092915050565b7f4f7264657220646f65736e277420657869737400000000000000000000000000600082015250565b600061130f601383610c1a565b915061131a826112d9565b602082019050919050565b6000602082019050818103600083015261133e81611302565b9050919050565b7f4e487b7100000000000000000000000000000000000000000000000000000000600052603260045260246000fd5b60006040820190506113896000830185610cf5565b6113966020830184610c00565b939250505056fea2646970667358221220e56d7b039ecad97141a4be1c56655623eed2fe952342564d61854191e076cd1164736f6c63430008170033",
  "linkReferences": {},
  "deployedLinkReferences": {}
}